{
  "_format": "hh-sol-artifact-1",
  "contractName": "Lock",
  "sourceName": "contracts/Lock.sol",
  "abi": [
    {
      "inputs": [
        {
          "internalType": "uint256",
          "name": "_unlockTime",
          "type": "uint256"
        },
        {
          "internalType": "address",
          "name": "_token",
          "type": "address"
        }
      ],
      "stateMutability": "payable",
      "type": "constructor"
    },
    {
      "anonymous": false,
      "inputs": [
        {
          "indexed": true,
          "internalType": "address",
          "name": "from",
          "type": "address"
        },
        {
          "indexed": true,
          "internalType": "address",
          "name": "to",
          "type": "address"
        },
        {
          "indexed": false,
          "internalType": "uint256",
          "name": "amount",
          "type": "uint256"
        }
      ],
      "name": "TokensTransferred",
      "type": "event"
    },
    {
      "anonymous": false,
      "inputs": [
        {
          "indexed": false,
          "internalType": "uint256",
          "name": "amount",
          "type": "uint256"
        },
        {
          "indexed": false,
          "internalType": "uint256",
          "name": "when",
          "type": "uint256"
        }
      ],
      "name": "Withdrawal",
      "type": "event"
    },
    {
      "inputs": [],
      "name": "getContractBalance",
      "outputs": [
        {
          "internalType": "uint256",
          "name": "",
          "type": "uint256"
        }
      ],
      "stateMutability": "view",
      "type": "function"
    },
    {
      "inputs": [],
      "name": "owner",
      "outputs": [
        {
          "internalType": "address payable",
          "name": "",
          "type": "address"
        }
      ],
      "stateMutability": "view",
      "type": "function"
    },
    {
      "inputs": [],
      "name": "token",
      "outputs": [
        {
          "internalType": "contract ERC20",
          "name": "",
          "type": "address"
        }
      ],
      "stateMutability": "view",
      "type": "function"
    },
    {
      "inputs": [
        {
          "internalType": "uint256",
          "name": "_amount",
          "type": "uint256"
        },
        {
          "internalType": "contract ERC20",
          "name": "mytoken",
          "type": "address"
        }
      ],
      "name": "transferTokens",
      "outputs": [],
      "stateMutability": "nonpayable",
      "type": "function"
    },
    {
      "inputs": [],
      "name": "unlockTime",
      "outputs": [
        {
          "internalType": "uint256",
          "name": "",
          "type": "uint256"
        }
      ],
      "stateMutability": "view",
      "type": "function"
    },
    {
      "inputs": [],
      "name": "withdraw",
      "outputs": [],
      "stateMutability": "nonpayable",
      "type": "function"
    }
  ],
  "bytecode": "0x6080604052604051610605380380610605833981016040819052610022916100b5565b8142106100815760405162461bcd60e51b815260206004820152602360248201527f556e6c6f636b2074696d652073686f756c6420626520696e207468652066757460448201526275726560e81b606482015260840160405180910390fd5b600091909155600280546001600160a01b039092166001600160a01b031992831617905560018054909116331790556100f2565b600080604083850312156100c857600080fd5b825160208401519092506001600160a01b03811681146100e757600080fd5b809150509250929050565b610504806101016000396000f3fe608060405234801561001057600080fd5b50600436106100625760003560e01c8063251c1aa3146100675780633ccfd60b146100835780636f9fb98a1461008d5780638da5cb5b14610095578063d012c5f1146100c0578063fc0c546a146100d3575b600080fd5b61007060005481565b6040519081526020015b60405180910390f35b61008b6100e6565b005b6100706101fb565b6001546100a8906001600160a01b031681565b6040516001600160a01b03909116815260200161007a565b61008b6100ce366004610450565b61026d565b6002546100a8906001600160a01b031681565b6000544210156101365760405162461bcd60e51b8152602060048201526016602482015275165bdd4818d85b89dd081dda5d1a191c985dc81e595d60521b60448201526064015b60405180910390fd5b6001546001600160a01b031633146101875760405162461bcd60e51b81526020600482015260146024820152732cb7ba9030b932b713ba103a34329037bbb732b960611b604482015260640161012d565b604080514781524260208201527fbf2ed60bd5b5965d685680c01195c9514e4382e28e3a5a2d2d5244bf59411b93910160405180910390a16001546040516001600160a01b03909116904780156108fc02916000818181858888f193505050501580156101f8573d6000803e3d6000fd5b50565b6002546040516370a0823160e01b81523060048201526000916001600160a01b0316906370a0823190602401602060405180830381865afa158015610244573d6000803e3d6000fd5b505050506040513d601f19601f82011682018060405250810190610268919061048c565b905090565b6040516370a0823160e01b81523360048201526000906001600160a01b038316906370a0823190602401602060405180830381865afa1580156102b4573d6000803e3d6000fd5b505050506040513d601f19601f820116820180604052508101906102d8919061048c565b90508281101561032a5760405162461bcd60e51b815260206004820181905260248201527f496e73756666696369656e742062616c616e636520696e20636f6e7472616374604482015260640161012d565b60405163095ea7b360e01b8152306004820152602481018490526001600160a01b0383169063095ea7b3906044016020604051808303816000875af1158015610377573d6000803e3d6000fd5b505050506040513d601f19601f8201168201806040525081019061039b91906104a5565b506040516323b872dd60e01b8152336004820152306024820152604481018490526001600160a01b038316906323b872dd906064016020604051808303816000875af11580156103ef573d6000803e3d6000fd5b505050506040513d601f19601f8201168201806040525081019061041391906104a5565b50604051838152309033907f1b89874203ff7f0bba87c969ada3f32fda22ed38a6706d35199d21280c7811b19060200160405180910390a3505050565b6000806040838503121561046357600080fd5b8235915060208301356001600160a01b038116811461048157600080fd5b809150509250929050565b60006020828403121561049e57600080fd5b5051919050565b6000602082840312156104b757600080fd5b815180151581146104c757600080fd5b939250505056fea26469706673582212208f43abf7c256e134665ad88fed5a70514c8773cbf688bbd370b813380b525a5064736f6c63430008180033",
  "linkReferences": {},
  "deployedLinkReferences": {}
}